{
  "_format": "hh-sol-artifact-1",
  "contractName": "MeaningOfLife",
  "sourceName": "contracts/MeaningOfLife.sol",
  "abi": [
    {
      "inputs": [],
      "stateMutability": "nonpayable",
      "type": "constructor"
    },
    {
      "inputs": [],
      "name": "InvalidInitialization",
      "type": "error"
    },
    {
      "inputs": [],
      "name": "NotInitializing",
      "type": "error"
    },
    {
      "anonymous": false,
      "inputs": [
        {
          "indexed": false,
          "internalType": "uint64",
          "name": "version",
          "type": "uint64"
        }
      ],
      "name": "Initialized",
      "type": "event"
    },
    {
      "inputs": [],
      "name": "initialize",
      "outputs": [],
      "stateMutability": "nonpayable",
      "type": "function"
    },
    {
      "inputs": [],
      "name": "theMeaningOfLifeIs",
      "outputs": [
        {
          "internalType": "uint32",
          "name": "meaning",
          "type": "uint32"
        }
      ],
      "stateMutability": "pure",
      "type": "function"
    }
  ],
  "bytecode": "0x608060405234801561001057600080fd5b5061001961001e565b6100d0565b7ff0c57e16840df040f15088dc2f81fe391c3923bec73e23a9662efc9c229c6a00805468010000000000000000900460ff161561006e5760405163f92ee8a960e01b815260040160405180910390fd5b80546001600160401b03908116146100cd5780546001600160401b0319166001600160401b0390811782556040519081527fc7f505b2f371ae2175ee4913f4499e1f2633a7b5936321eed1cdaeb6115181d29060200160405180910390a15b50565b610195806100df6000396000f3fe608060405234801561001057600080fd5b50600436106100365760003560e01c80638129fc1c1461003b578063b04a083c14610045575b600080fd5b610043610059565b005b60408051602a815290519081900360200190f35b7ff0c57e16840df040f15088dc2f81fe391c3923bec73e23a9662efc9c229c6a008054600160401b810460ff16159067ffffffffffffffff1660008115801561009f5750825b905060008267ffffffffffffffff1660011480156100bc5750303b155b9050811580156100ca575080155b156100e85760405163f92ee8a960e01b815260040160405180910390fd5b845467ffffffffffffffff19166001178555831561011257845460ff60401b1916600160401b1785555b831561015857845460ff60401b19168555604051600181527fc7f505b2f371ae2175ee4913f4499e1f2633a7b5936321eed1cdaeb6115181d29060200160405180910390a15b505050505056fea2646970667358221220a2b637328bef227515581c2ae79fb2b74300cb55ce0f6cf791ccec8bfd8db92864736f6c63430008180033",
  "linkReferences": {},
  "deployedLinkReferences": {}
}